:100000000C942A000C9447000C9447000C94470071
:100010000C9447000C9447000C9447000C94470044
:100020000C9447000C9467050C9447000C9447000F
:100030000C9447000C9447000C9447000C94470024
:100040000C9447000C9447000C9447000C94470014
:100050000C94470011241FBECFE5D4E0DEBFCDBF16
:1000600010E0A0E6B0E0E0E0FBE002C005900D92F9
:10007000A236B107D9F720E0A2E6B0E001C01D9298
:10008000A936B207E1F70E9404040C947E050C9493
:100090000000813041F028F0823039F0833041F4A3
:1000A00006C0D99A0895DD9A0895AE9A0895AA9A3D
:1000B0000895813041F028F0823039F0833041F4E6
:1000C00006C0D89A0895DC9A0895929A0895AB9A3A
:1000D0000895813041F028F0823039F0833041F4C6
:1000E00006C0C09A0895C39A0895AF9A0895939A46
:1000F0000895813041F028F0823039F0833041F4A6
:1001000006C0C29A0895C49A0895919A0895969A3D
:100110000895813041F028F0823039F0833041F485
:1001200006C0DB9A0895C59A0895AC9A0895979AE7
:100130000895813041F028F0823039F0833041F465
:1001400006C0C19A0895DE9A0895909A0895949AE7
:100150000895813041F028F0823039F0833041F445
:1001600006C0DA9A0895DF9A0895AD9A0895959A8F
:100170000895813069F028F0823089F08330E1F40D
:1001800015C08BB3807F8BBB88B3887F88BB0895F5
:100190008BB38F708BBB88B3877C88BB089585B386
:1001A0008F7085BB82B3887F82BB089585B3837FC0
:1001B00085BB82B3877082BB08958FEF81BB8ABBFA
:1001C0008FE387BB8CEF84BB0895CF93DF93C82F59
:1001D000D62F0E94B900D43009F456C048F4D1306B
:1001E00061F1C0F0D23081F1D33009F0B0C03CC031
:1001F000D73009F479C038F4D53009F452C0D6307C
:1002000009F0A5C05EC0D83009F478C0D93009F033
:100210009EC08AC08C2F0E9449008C2F0E945900DA
:100220008C2F0E9469008C2F0E9479008C2F0E94D5
:1002300089008C2F0E9499008DC08C2F0E9459003C
:100240008C2F0E94690086C08C2F0E9449008C2F41
:100250000E9459008C2F0E9479008C2F0E948900E7
:100260008C2F0E94A90076C08C2F0E9449008C2FF1
:100270000E9459008C2F0E9469008C2F0E947900E7
:100280008C2F0E94A90066C08C2F0E9459008C2FD1
:100290000E9469008C2F0E9499008C2F0E94A90057
:1002A00059C08C2F0E9449008C2F0E9469008C2F0E
:1002B0000E9479008C2F0E9499008C2F0E94A90027
:1002C00049C08C2F0E9449008C2F0E9469008C2FFE
:1002D0000E9479008C2F0E9489008C2F0E94990027
:1002E0008C2F0E94A90036C08C2F0E9449008C2FB1
:1002F0000E9459008C2F0E9469002CC08C2F0E94F4
:1003000049008C2F0E9459008C2F0E9469008C2F6D
:100310000E9479008C2F0E9489008C2F0E949900E6
:100320008C2F0E94A90016C08C2F0E9449008C2F90
:100330000E9459008C2F0E9469008C2F0E94790026
:100340008C2F0E9499008C2F0E94A90003C08C2F33
:100350000E94A900DF91CF910895CF93DF93C82F1A
:10036000D62F6053693018F40E94E50026C00E9421
:10037000B900DD3229F0D334A1F0DA32F1F404C04F
:100380008C2F0E94A90019C08C2F0E9449008C2F2D
:100390000E9459008C2F0E9499008C2F0E94A90066
:1003A0000CC08C2F0E9449008C2F0E9479008C2F4A
:1003B0000E9489008C2F0E949900DF91CF910895AF
:1003C0001F93CF93DF93809165008A3058F06DECD6
:1003D000869F612D112466956695669583E00E943F
:1003E000E50003C083E00E94B900609165001DEC48
:1003F000619F812D1124869586958695880F982F6B
:10040000990F990F890F681B82E00E94E500C4E6EE
:10041000D0E06881619F612D11246695669566958F
:1004200081E00E94E5006881619F112D11241695DD
:1004300016951695110F812F880F880F180F611BC5
:1004400080E00E94E500DF91CF911F9108956DE259
:1004500080E00E94AD016DE281E00E94AD016DE29D
:1004600082E00E94AD016DE283E00E94AD0108953B
:1004700060E280E00E94AD0160E281E00E94AD0197
:1004800060E282E00E94AD0160E283E00E94AD0183
:100490000895CF93DF93C82F63E480E00E94AD01FD
:1004A0006AE281E00E94AD01C43648F06DE282E06C
:1004B0000E94AD016DE283E00E94AD0116C0D7E657
:1004C000CD02D12D1124D595D595C7FDD3956D2F8E
:1004D00083E00E94E500DD0F8D2F880F880FD80F75
:1004E0006C2F6D1B82E00E94E500DF91CF91089593
:1004F000CF93DF9300D000D0CDB7DEB719821A8238
:100500001B821C820E94370341E050E0BE016C5FF9
:100510007F4F80ED0E94B00343E050E0BE016F5F6B
:100520007F4F81ED0E94750329819A818B81322F43
:1005300032953F70330F432F440F440F340F2F7009
:10054000320F30936300292F22952F70220F322F04
:10055000330F330F230F9F70290F20936400982FC0
:1005600092959F70990F292F220F220F920F8F7053
:10057000980F909365000F900F900F900F90DF9160
:10058000CF910895CF93DF9300D000D0CDB7DEB7E1
:1005900040916300309164009091650019828DEC68
:1005A000489F212D1124269526952695522F550FCB
:1005B000652F660F660F560F451B50E1259F400DB6
:1005C00011244A83389F212D11242695269526959E
:1005D000422F440F542F550F550F450F341B40E148
:1005E000249F300D11243B83989F812D11248695E3
:1005F00086958695282F220F322F330F330F230F26
:10060000921B50E1859F900D11249C830E9437031B
:1006100044E050E0BE016F5F7F4F80ED0E94B00369
:100620000F900F900F900F90DF91CF910895CF937F
:10063000DF9300D0CDB7DEB7198281E18A830E94B3
:10064000370341E050E0BE016E5F7F4F80ED0E94B6
:10065000B00341E050E0BE016F5F7F4F81ED0E942B
:10066000750389810F900F90DF91CF9108958DEFE1
:1006700080B9089516BE94EA96BF06B607FEFDCF70
:1006800091B1987F983079F483B984E886BF06B633
:1006900007FEFDCF91B1987F983139F081E0903419
:1006A00029F480E0089581E0089580E0089583B9F9
:1006B00084E886BF06B607FEFDCF91B1987F81E042
:1006C000983209F480E0089584EC86BF06B607FEF0
:1006D000FDCF83B1089584E886BF06B607FEFDCF3F
:1006E00083B1089584E986BF0895AF92BF92CF92F7
:1006F000DF92EF92FF920F931F93CF93DF935B01F3
:100700006A0181600E943A0381111EC0760181E076
:10071000E81AF10861F08501C0E0D0E00E946403AE
:10072000F80181938F012196CE15DF05B8F3F1E032
:10073000CF1AD108E501CC0DDD1D0E946B03888323
:100740000E94720380E001C081E0DF91CF911F9190
:100750000F91FF90EF90DF90CF90BF90AF900895F2
:10076000EF92FF920F931F93CF93DF93E62EF72E16
:100770008A010E943A03811113C00115110561F02D
:10078000CE2DDF2D0C0F1D1F89910E945703811163
:1007900009C0C017D107C1F70E94720380E003C0EF
:1007A00081E001C081E0DF91CF911F910F91FF9017
:1007B000EF900895809164008F5F8C3319F08093DF
:1007C0006400089510926400809165008F5F883105
:1007D00019F0809365000895109265000895809146
:1007E0006400815018F08093640008958BE3809337
:1007F000640080916500815018F080936500089531
:1008000087E1809365000895109268000E94270296
:100810001DBC1CBC8EB585608EBD8CB59DB5883564
:100820009240D8F31EBC0E9478020E94DD007894AA
:1008300081E083BF89BFC3E6D0E004E610E00F2E5D
:10084000F5E6EF2EF0E0FF2EF02D0F2EFEE1CF2E7D
:10085000D12CF02D0F2EF4E72F2EFEE03F2EF02DA1
:100860006894442442F8552454F80F2EFCE96F2E66
:1008700077247A94F02D0F2EF4E68F2E912CF02D04
:10088000AA24A3946894BB24B1F82091600030910D
:10089000610080916600909167008217930708F4C9
:1008A00072C0109267001092660088818F5F888303
:1008B0008C3319F418820E94DA03F80180818E319A
:1008C00009F05BC088818E3109F057C0F701808143
:1008D00090916200891709F450C0909168009111BD
:1008E00052C0809362000E94380287EA91E6019725
:1008F000F1F700C000000E947802F701908180911A
:100900006200981338C0F801208144EC4203900142
:100910001124285F384F8881F601E81BF109CF01C7
:10092000820F931F853691050CF0C4012091600061
:10093000309161008C39FFEF9F070CF4C301820FE7
:10094000931F90936100809360008091600090916C
:1009500061008530904124F0509261004092600027
:10096000809160009091610084379E4024F4309221
:100970006100209260000E94E00180916800811176
:1009800002C00E94E001B69936C0809168008230B2
:1009900091F11DBC1CBC8EB585608EBDA092680017
:1009A00087EA91E60197F1F700C000000E94DA03A0
:1009B0000E94E0010BC0B69B09C0E7EAF1E631975F
:1009C000F1F700C00000B69B07C012C08CB59DB502
:1009D0008438934080F3F7CF0E94DA030E94E0014D
:1009E00087E893E10197F1F700C00000B69BF4CFD0
:1009F00018821DBC1CBCB7993CC01DBC1CBC8EB56C
:100A000085608EBD80916800813061F5E7EAF1E68E
:100A10003197F1F700C000000E94EF030E94E0014F
:100A20000BC0B79B09C087EA91E60197F1F700C0B8
:100A30000000B79B07C012C08CB59DB584389340A9
:100A400080F3F7CF0E94EF030E94E00187E893E173
:100A50000197F1F700C00000B79BF4CF18821DBCCE
:100A60001CBC07C00E9417030E944902B092680094
:100A700022C0809168008130C9F48CB59DB5813A5F
:100A80009F4008F402CF0E94C2020E943802FFE990
:100A900026E841E0F15020404040E1F700C000006E
:100AA0000E94E0011EBC10926800EFCE80916800A9
:100AB000823009F0EACE8CB59DB5813D974008F4AF
:100AC000E4CE0E94E0011EBC10926800DECE1F92B0
:100AD0000F920FB60F9211248F939F93809166000F
:100AE00090916700019690936700809366009F91B4
:100AF0008F910F900FBE0F901F901895F894FFCF15
:100B0000430FFFFFFFFFFFFFFFFFFFFFFFFFFFFFA1
:100B1000FFFFFFFFFFFFFFFFFFFFFFFFFFFFFFFFE5
:100B2000FFFFFFFFFFFFFFFFFFFFFFFFFFFFFFFFD5
:100B3000FFFFFFFFFFFFFFFFFFFFFFFFFFFFFFFFC5
:100B4000FFFFFFFFFFFFFFFFFFFFFFFFFFFFFFFFB5
:00000001FF
